{
  "contractName": "LandSale",
  "abi": [
    {
      "anonymous": false,
      "inputs": [
        {
          "indexed": true,
          "internalType": "address",
          "name": "owner",
          "type": "address"
        },
        {
          "indexed": true,
          "internalType": "address",
          "name": "approved",
          "type": "address"
        },
        {
          "indexed": true,
          "internalType": "uint256",
          "name": "tokenId",
          "type": "uint256"
        }
      ],
      "name": "Approval",
      "type": "event"
    },
    {
      "anonymous": false,
      "inputs": [
        {
          "indexed": true,
          "internalType": "address",
          "name": "owner",
          "type": "address"
        },
        {
          "indexed": true,
          "internalType": "address",
          "name": "operator",
          "type": "address"
        },
        {
          "indexed": false,
          "internalType": "bool",
          "name": "approved",
          "type": "bool"
        }
      ],
      "name": "ApprovalForAll",
      "type": "event"
    },
    {
      "anonymous": false,
      "inputs": [
        {
          "indexed": true,
          "internalType": "uint256",
          "name": "landID",
          "type": "uint256"
        },
        {
          "indexed": false,
          "internalType": "address",
          "name": "highestBidder",
          "type": "address"
        },
        {
          "indexed": false,
          "internalType": "uint256",
          "name": "highestBid",
          "type": "uint256"
        }
      ],
      "name": "BidEvent",
      "type": "event"
    },
    {
      "anonymous": false,
      "inputs": [
        {
          "indexed": true,
          "internalType": "address",
          "name": "from",
          "type": "address"
        },
        {
          "indexed": true,
          "internalType": "address",
          "name": "to",
          "type": "address"
        },
        {
          "indexed": true,
          "internalType": "uint256",
          "name": "tokenId",
          "type": "uint256"
        }
      ],
      "name": "Transfer",
      "type": "event"
    },
    {
      "stateMutability": "nonpayable",
      "type": "fallback"
    },
    {
      "inputs": [
        {
          "internalType": "address",
          "name": "to",
          "type": "address"
        },
        {
          "internalType": "uint256",
          "name": "tokenId",
          "type": "uint256"
        }
      ],
      "name": "approve",
      "outputs": [],
      "stateMutability": "nonpayable",
      "type": "function"
    },
    {
      "inputs": [
        {
          "internalType": "address",
          "name": "owner",
          "type": "address"
        }
      ],
      "name": "balanceOf",
      "outputs": [
        {
          "internalType": "uint256",
          "name": "",
          "type": "uint256"
        }
      ],
      "stateMutability": "view",
      "type": "function",
      "constant": true
    },
    {
      "inputs": [
        {
          "internalType": "uint256",
          "name": "tokenId",
          "type": "uint256"
        }
      ],
      "name": "getApproved",
      "outputs": [
        {
          "internalType": "address",
          "name": "",
          "type": "address"
        }
      ],
      "stateMutability": "view",
      "type": "function",
      "constant": true
    },
    {
      "inputs": [
        {
          "internalType": "uint256",
          "name": "landID",
          "type": "uint256"
        }
      ],
      "name": "getLandDetails",
      "outputs": [
        {
          "components": [
            {
              "internalType": "uint256",
              "name": "surveyNo",
              "type": "uint256"
            },
            {
              "internalType": "string",
              "name": "district",
              "type": "string"
            },
            {
              "internalType": "string",
              "name": "taluk",
              "type": "string"
            },
            {
              "internalType": "string",
              "name": "village",
              "type": "string"
            },
            {
              "internalType": "uint256",
              "name": "blockNo",
              "type": "uint256"
            },
            {
              "internalType": "uint256",
              "name": "landValue",
              "type": "uint256"
            },
            {
              "internalType": "uint256",
              "name": "area",
              "type": "uint256"
            },
            {
              "internalType": "bool",
              "name": "salesStatus",
              "type": "bool"
            },
            {
              "internalType": "bytes",
              "name": "documentHash",
              "type": "bytes"
            }
          ],
          "internalType": "struct LandRegistration.LandDetail",
          "name": "",
          "type": "tuple"
        }
      ],
      "stateMutability": "view",
      "type": "function",
      "constant": true
    },
    {
      "inputs": [
        {
          "internalType": "address",
          "name": "owner",
          "type": "address"
        },
        {
          "internalType": "address",
          "name": "operator",
          "type": "address"
        }
      ],
      "name": "isApprovedForAll",
      "outputs": [
        {
          "internalType": "bool",
          "name": "",
          "type": "bool"
        }
      ],
      "stateMutability": "view",
      "type": "function",
      "constant": true
    },
    {
      "inputs": [],
      "name": "name",
      "outputs": [
        {
          "internalType": "string",
          "name": "",
          "type": "string"
        }
      ],
      "stateMutability": "view",
      "type": "function",
      "constant": true
    },
    {
      "inputs": [
        {
          "internalType": "uint256",
          "name": "tokenId",
          "type": "uint256"
        }
      ],
      "name": "ownerOf",
      "outputs": [
        {
          "internalType": "address",
          "name": "",
          "type": "address"
        }
      ],
      "stateMutability": "view",
      "type": "function",
      "constant": true
    },
    {
      "inputs": [
        {
          "internalType": "uint256",
          "name": "surveyNo",
          "type": "uint256"
        },
        {
          "internalType": "string",
          "name": "district",
          "type": "string"
        },
        {
          "internalType": "string",
          "name": "taluk",
          "type": "string"
        },
        {
          "internalType": "string",
          "name": "village",
          "type": "string"
        },
        {
          "internalType": "uint256",
          "name": "blockNo",
          "type": "uint256"
        },
        {
          "internalType": "uint256",
          "name": "landValue",
          "type": "uint256"
        },
        {
          "internalType": "uint256",
          "name": "area",
          "type": "uint256"
        },
        {
          "internalType": "bytes",
          "name": "documentHash",
          "type": "bytes"
        }
      ],
      "name": "registerNewLand",
      "outputs": [],
      "stateMutability": "nonpayable",
      "type": "function"
    },
    {
      "inputs": [],
      "name": "registeredLandCount",
      "outputs": [
        {
          "internalType": "uint256",
          "name": "",
          "type": "uint256"
        }
      ],
      "stateMutability": "view",
      "type": "function",
      "constant": true
    },
    {
      "inputs": [
        {
          "internalType": "address",
          "name": "from",
          "type": "address"
        },
        {
          "internalType": "address",
          "name": "to",
          "type": "address"
        },
        {
          "internalType": "uint256",
          "name": "tokenId",
          "type": "uint256"
        }
      ],
      "name": "safeTransferFrom",
      "outputs": [],
      "stateMutability": "nonpayable",
      "type": "function"
    },
    {
      "inputs": [
        {
          "internalType": "address",
          "name": "from",
          "type": "address"
        },
        {
          "internalType": "address",
          "name": "to",
          "type": "address"
        },
        {
          "internalType": "uint256",
          "name": "tokenId",
          "type": "uint256"
        },
        {
          "internalType": "bytes",
          "name": "data",
          "type": "bytes"
        }
      ],
      "name": "safeTransferFrom",
      "outputs": [],
      "stateMutability": "nonpayable",
      "type": "function"
    },
    {
      "inputs": [
        {
          "internalType": "address",
          "name": "operator",
          "type": "address"
        },
        {
          "internalType": "bool",
          "name": "approved",
          "type": "bool"
        }
      ],
      "name": "setApprovalForAll",
      "outputs": [],
      "stateMutability": "nonpayable",
      "type": "function"
    },
    {
      "inputs": [
        {
          "internalType": "bytes4",
          "name": "interfaceId",
          "type": "bytes4"
        }
      ],
      "name": "supportsInterface",
      "outputs": [
        {
          "internalType": "bool",
          "name": "",
          "type": "bool"
        }
      ],
      "stateMutability": "view",
      "type": "function",
      "constant": true
    },
    {
      "inputs": [],
      "name": "symbol",
      "outputs": [
        {
          "internalType": "string",
          "name": "",
          "type": "string"
        }
      ],
      "stateMutability": "view",
      "type": "function",
      "constant": true
    },
    {
      "inputs": [
        {
          "internalType": "uint256",
          "name": "tokenId",
          "type": "uint256"
        }
      ],
      "name": "tokenURI",
      "outputs": [
        {
          "internalType": "string",
          "name": "",
          "type": "string"
        }
      ],
      "stateMutability": "view",
      "type": "function",
      "constant": true
    },
    {
      "inputs": [
        {
          "internalType": "address",
          "name": "from",
          "type": "address"
        },
        {
          "internalType": "address",
          "name": "to",
          "type": "address"
        },
        {
          "internalType": "uint256",
          "name": "tokenId",
          "type": "uint256"
        }
      ],
      "name": "transferFrom",
      "outputs": [],
      "stateMutability": "nonpayable",
      "type": "function"
    },
    {
      "inputs": [
        {
          "internalType": "uint256",
          "name": "landID",
          "type": "uint256"
        }
      ],
      "name": "bid",
      "outputs": [],
      "stateMutability": "payable",
      "type": "function",
      "payable": true
    },
    {
      "inputs": [
        {
          "internalType": "uint256",
          "name": "landID",
          "type": "uint256"
        }
      ],
      "name": "acceptBid",
      "outputs": [],
      "stateMutability": "nonpayable",
      "type": "function"
    }
  ],
  "bytecode": "0x608060405260006007553480156200001657600080fd5b506040518060400160405280600481526020017f4c616e64000000000000000000000000000000000000000000000000000000008152506040518060400160405280600381526020017f4c4e44000000000000000000000000000000000000000000000000000000000081525081600090805190602001906200009b929190620000bd565b508060019080519060200190620000b4929190620000bd565b505050620001d2565b828054620000cb906200019c565b90600052602060002090601f016020900481019282620000ef57600085556200013b565b82601f106200010a57805160ff19168380011785556200013b565b828001600101855582156200013b579182015b828111156200013a5782518255916020019190600101906200011d565b5b5090506200014a91906200014e565b5090565b5b80821115620001695760008160009055506001016200014f565b5090565b7f4e487b7100000000000000000000000000000000000000000000000000000000600052602260045260246000fd5b60006002820490506001821680620001b557607f821691505b60208210811415620001cc57620001cb6200016d565b5b50919050565b61380b80620001e26000396000f3fe60806040526004361061010d5760003560e01c80636352211e11610095578063a7613a7d11610064578063a7613a7d1461037c578063b88d4fde146103a7578063c87b56dd146103d0578063e985e9c51461040d578063fe0cb7dc1461044a5761010e565b80636352211e146102ae57806370a08231146102eb57806395d89b4114610328578063a22cb465146103535761010e565b806310d10780116100dc57806310d10780146101ee57806323b872dd146102175780632b1fd58a1461024057806342842e0e14610269578063454a2ab3146102925761010e565b806301ffc9a71461012057806306fdde031461015d578063081812fc14610188578063095ea7b3146101c55761010e565b5b34801561011a57600080fd5b50600080fd5b34801561012c57600080fd5b50610147600480360381019061014291906125c2565b610487565b604051610154919061260a565b60405180910390f35b34801561016957600080fd5b50610172610569565b60405161017f91906126be565b60405180910390f35b34801561019457600080fd5b506101af60048036038101906101aa9190612716565b6105fb565b6040516101bc9190612784565b60405180910390f35b3480156101d157600080fd5b506101ec60048036038101906101e791906127cb565b610641565b005b3480156101fa57600080fd5b50610215600480360381019061021091906129e1565b610759565b005b34801561022357600080fd5b5061023e60048036038101906102399190612b07565b6108a1565b005b34801561024c57600080fd5b5061026760048036038101906102629190612716565b610901565b005b34801561027557600080fd5b50610290600480360381019061028b9190612b07565b610c09565b005b6102ac60048036038101906102a79190612716565b610c29565b005b3480156102ba57600080fd5b506102d560048036038101906102d09190612716565b610f58565b6040516102e29190612784565b60405180910390f35b3480156102f757600080fd5b50610312600480360381019061030d9190612b5a565b610fdf565b60405161031f9190612b96565b60405180910390f35b34801561033457600080fd5b5061033d611097565b60405161034a91906126be565b60405180910390f35b34801561035f57600080fd5b5061037a60048036038101906103759190612bdd565b611129565b005b34801561038857600080fd5b5061039161113f565b60405161039e9190612b96565b60405180910390f35b3480156103b357600080fd5b506103ce60048036038101906103c99190612c1d565b611145565b005b3480156103dc57600080fd5b506103f760048036038101906103f29190612716565b6111a7565b60405161040491906126be565b60405180910390f35b34801561041957600080fd5b50610434600480360381019061042f9190612ca0565b61120f565b604051610441919061260a565b60405180910390f35b34801561045657600080fd5b50610471600480360381019061046c9190612716565b6112a3565b60405161047e9190612e77565b60405180910390f35b60007f80ac58cd000000000000000000000000000000000000000000000000000000007bffffffffffffffffffffffffffffffffffffffffffffffffffffffff1916827bffffffffffffffffffffffffffffffffffffffffffffffffffffffff1916148061055257507f5b5e139f000000000000000000000000000000000000000000000000000000007bffffffffffffffffffffffffffffffffffffffffffffffffffffffff1916827bffffffffffffffffffffffffffffffffffffffffffffffffffffffff1916145b8061056257506105618261155c565b5b9050919050565b60606000805461057890612ec8565b80601f01602080910402602001604051908101604052809291908181526020018280546105a490612ec8565b80156105f15780601f106105c6576101008083540402835291602001916105f1565b820191906000526020600020905b8154815290600101906020018083116105d457829003601f168201915b5050505050905090565b6000610606826115c6565b6004600083815260200190815260200160002060009054906101000a900473ffffffffffffffffffffffffffffffffffffffff169050919050565b600061064c82610f58565b90508073ffffffffffffffffffffffffffffffffffffffff168373ffffffffffffffffffffffffffffffffffffffff1614156106bd576040517f08c379a00000000000000000000000000000000000000000000000000000000081526004016106b490612f6c565b60405180910390fd5b8073ffffffffffffffffffffffffffffffffffffffff166106dc611611565b73ffffffffffffffffffffffffffffffffffffffff16148061070b575061070a81610705611611565b61120f565b5b61074a576040517f08c379a000000000000000000000000000000000000000000000000000000000815260040161074190612ffe565b60405180910390fd5b6107548383611619565b505050565b604051806101200160405280898152602001888152602001878152602001868152602001858152602001848152602001838152602001600015158152602001828152506006600060075481526020019081526020016000206000820151816000015560208201518160010190805190602001906107d79291906123df565b5060408201518160020190805190602001906107f49291906123df565b5060608201518160030190805190602001906108119291906123df565b506080820151816004015560a0820151816005015560c0820151816006015560e08201518160070160006101000a81548160ff02191690831515021790555061010082015181600801908051906020019061086d929190612465565b5090505061087d336007546116d2565b600160076000828254610890919061304d565b925050819055505050505050505050565b6108b26108ac611611565b826118f0565b6108f1576040517f08c379a00000000000000000000000000000000000000000000000000000000081526004016108e890613115565b60405180910390fd5b6108fc838383611985565b505050565b3373ffffffffffffffffffffffffffffffffffffffff166108fc60086000848152602001908152602001600020600001549081150290604051600060405180830381858888f1935050505015801561095d573d6000803e3d6000fd5b5061099f336008600084815260200190815260200160002060010160009054906101000a900473ffffffffffffffffffffffffffffffffffffffff1683610c09565b60005b6008600083815260200190815260200160002060030180549050811015610bd6576008600083815260200190815260200160002060010160009054906101000a900473ffffffffffffffffffffffffffffffffffffffff1673ffffffffffffffffffffffffffffffffffffffff16600860008481526020019081526020016000206003018281548110610a3857610a37613135565b5b9060005260206000200160009054906101000a900473ffffffffffffffffffffffffffffffffffffffff1673ffffffffffffffffffffffffffffffffffffffff161415610a8457610bc3565b600860008381526020019081526020016000206003018181548110610aac57610aab613135565b5b9060005260206000200160009054906101000a900473ffffffffffffffffffffffffffffffffffffffff1673ffffffffffffffffffffffffffffffffffffffff166108fc600860008581526020019081526020016000206002016000600860008781526020019081526020016000206003018581548110610b3057610b2f613135565b5b9060005260206000200160009054906101000a900473ffffffffffffffffffffffffffffffffffffffff1673ffffffffffffffffffffffffffffffffffffffff1673ffffffffffffffffffffffffffffffffffffffff168152602001908152602001600020549081150290604051600060405180830381858888f19350505050158015610bc1573d6000803e3d6000fd5b505b8080610bce90613164565b9150506109a2565b5060016006600083815260200190815260200160002060070160006101000a81548160ff02191690831515021790555050565b610c2483838360405180602001604052806000815250611145565b505050565b610c3281610f58565b73ffffffffffffffffffffffffffffffffffffffff163373ffffffffffffffffffffffffffffffffffffffff161415610c6a57600080fd5b6008600082815260200190815260200160002060000154346008600084815260200190815260200160002060020160003373ffffffffffffffffffffffffffffffffffffffff1673ffffffffffffffffffffffffffffffffffffffff16815260200190815260200160002054610ce0919061304d565b11610d20576040517f08c379a0000000000000000000000000000000000000000000000000000000008152600401610d17906131f9565b60405180910390fd5b336008600083815260200190815260200160002060010160006101000a81548173ffffffffffffffffffffffffffffffffffffffff021916908373ffffffffffffffffffffffffffffffffffffffff16021790555060086000828152602001908152602001600020600301339080600181540180825580915050600190039060005260206000200160009091909190916101000a81548173ffffffffffffffffffffffffffffffffffffffff021916908373ffffffffffffffffffffffffffffffffffffffff160217905550346008600083815260200190815260200160002060020160003373ffffffffffffffffffffffffffffffffffffffff1673ffffffffffffffffffffffffffffffffffffffff16815260200190815260200160002054610e4b919061304d565b6008600083815260200190815260200160002060000181905550346008600083815260200190815260200160002060020160003373ffffffffffffffffffffffffffffffffffffffff1673ffffffffffffffffffffffffffffffffffffffff1681526020019081526020016000206000828254610ec8919061304d565b92505081905550807faba11c5dfdb797eb6f7328f5f70a9b390c19e34a3927e10f1925839d442c42936008600084815260200190815260200160002060010160009054906101000a900473ffffffffffffffffffffffffffffffffffffffff166008600085815260200190815260200160002060000154604051610f4d929190613219565b60405180910390a250565b600080610f6483611c7f565b9050600073ffffffffffffffffffffffffffffffffffffffff168173ffffffffffffffffffffffffffffffffffffffff161415610fd6576040517f08c379a0000000000000000000000000000000000000000000000000000000008152600401610fcd9061328e565b60405180910390fd5b80915050919050565b60008073ffffffffffffffffffffffffffffffffffffffff168273ffffffffffffffffffffffffffffffffffffffff161415611050576040517f08c379a000000000000000000000000000000000000000000000000000000000815260040161104790613320565b60405180910390fd5b600360008373ffffffffffffffffffffffffffffffffffffffff1673ffffffffffffffffffffffffffffffffffffffff168152602001908152602001600020549050919050565b6060600180546110a690612ec8565b80601f01602080910402602001604051908101604052809291908181526020018280546110d290612ec8565b801561111f5780601f106110f45761010080835404028352916020019161111f565b820191906000526020600020905b81548152906001019060200180831161110257829003601f168201915b5050505050905090565b61113b611134611611565b8383611cbc565b5050565b60075481565b611156611150611611565b836118f0565b611195576040517f08c379a000000000000000000000000000000000000000000000000000000000815260040161118c90613115565b60405180910390fd5b6111a184848484611e29565b50505050565b60606111b2826115c6565b60006111bc611e85565b905060008151116111dc5760405180602001604052806000815250611207565b806111e684611e9c565b6040516020016111f792919061337c565b6040516020818303038152906040525b915050919050565b6000600560008473ffffffffffffffffffffffffffffffffffffffff1673ffffffffffffffffffffffffffffffffffffffff16815260200190815260200160002060008373ffffffffffffffffffffffffffffffffffffffff1673ffffffffffffffffffffffffffffffffffffffff16815260200190815260200160002060009054906101000a900460ff16905092915050565b6112ab6124eb565b6006600083815260200190815260200160002060405180610120016040529081600082015481526020016001820180546112e490612ec8565b80601f016020809104026020016040519081016040528092919081815260200182805461131090612ec8565b801561135d5780601f106113325761010080835404028352916020019161135d565b820191906000526020600020905b81548152906001019060200180831161134057829003601f168201915b5050505050815260200160028201805461137690612ec8565b80601f01602080910402602001604051908101604052809291908181526020018280546113a290612ec8565b80156113ef5780601f106113c4576101008083540402835291602001916113ef565b820191906000526020600020905b8154815290600101906020018083116113d257829003601f168201915b5050505050815260200160038201805461140890612ec8565b80601f016020809104026020016040519081016040528092919081815260200182805461143490612ec8565b80156114815780601f1061145657610100808354040283529160200191611481565b820191906000526020600020905b81548152906001019060200180831161146457829003601f168201915b505050505081526020016004820154815260200160058201548152602001600682015481526020016007820160009054906101000a900460ff161515151581526020016008820180546114d390612ec8565b80601f01602080910402602001604051908101604052809291908181526020018280546114ff90612ec8565b801561154c5780601f106115215761010080835404028352916020019161154c565b820191906000526020600020905b81548152906001019060200180831161152f57829003601f168201915b5050505050815250509050919050565b60007f01ffc9a7000000000000000000000000000000000000000000000000000000007bffffffffffffffffffffffffffffffffffffffffffffffffffffffff1916827bffffffffffffffffffffffffffffffffffffffffffffffffffffffff1916149050919050565b6115cf81611f74565b61160e576040517f08c379a00000000000000000000000000000000000000000000000000000000081526004016116059061328e565b60405180910390fd5b50565b600033905090565b816004600083815260200190815260200160002060006101000a81548173ffffffffffffffffffffffffffffffffffffffff021916908373ffffffffffffffffffffffffffffffffffffffff160217905550808273ffffffffffffffffffffffffffffffffffffffff1661168c83610f58565b73ffffffffffffffffffffffffffffffffffffffff167f8c5be1e5ebec7d5bd14f71427d1e84f3dd0314c0f7b2291e5b200ac8c7c3b92560405160405180910390a45050565b600073ffffffffffffffffffffffffffffffffffffffff168273ffffffffffffffffffffffffffffffffffffffff161415611742576040517f08c379a0000000000000000000000000000000000000000000000000000000008152600401611739906133ec565b60405180910390fd5b61174b81611f74565b1561178b576040517f08c379a000000000000000000000000000000000000000000000000000000000815260040161178290613458565b60405180910390fd5b611799600083836001611fb5565b6117a281611f74565b156117e2576040517f08c379a00000000000000000000000000000000000000000000000000000000081526004016117d990613458565b60405180910390fd5b6001600360008473ffffffffffffffffffffffffffffffffffffffff1673ffffffffffffffffffffffffffffffffffffffff16815260200190815260200160002060008282540192505081905550816002600083815260200190815260200160002060006101000a81548173ffffffffffffffffffffffffffffffffffffffff021916908373ffffffffffffffffffffffffffffffffffffffff160217905550808273ffffffffffffffffffffffffffffffffffffffff16600073ffffffffffffffffffffffffffffffffffffffff167fddf252ad1be2c89b69c2b068fc378daa952ba7f163c4a11628f55a4df523b3ef60405160405180910390a46118ec6000838360016120db565b5050565b6000806118fc83610f58565b90508073ffffffffffffffffffffffffffffffffffffffff168473ffffffffffffffffffffffffffffffffffffffff16148061193e575061193d818561120f565b5b8061197c57508373ffffffffffffffffffffffffffffffffffffffff16611964846105fb565b73ffffffffffffffffffffffffffffffffffffffff16145b91505092915050565b8273ffffffffffffffffffffffffffffffffffffffff166119a582610f58565b73ffffffffffffffffffffffffffffffffffffffff16146119fb576040517f08c379a00000000000000000000000000000000000000000000000000000000081526004016119f2906134ea565b60405180910390fd5b600073ffffffffffffffffffffffffffffffffffffffff168273ffffffffffffffffffffffffffffffffffffffff161415611a6b576040517f08c379a0000000000000000000000000000000000000000000000000000000008152600401611a629061357c565b60405180910390fd5b611a788383836001611fb5565b8273ffffffffffffffffffffffffffffffffffffffff16611a9882610f58565b73ffffffffffffffffffffffffffffffffffffffff1614611aee576040517f08c379a0000000000000000000000000000000000000000000000000000000008152600401611ae5906134ea565b60405180910390fd5b6004600082815260200190815260200160002060006101000a81549073ffffffffffffffffffffffffffffffffffffffff02191690556001600360008573ffffffffffffffffffffffffffffffffffffffff1673ffffffffffffffffffffffffffffffffffffffff168152602001908152602001600020600082825403925050819055506001600360008473ffffffffffffffffffffffffffffffffffffffff1673ffffffffffffffffffffffffffffffffffffffff16815260200190815260200160002060008282540192505081905550816002600083815260200190815260200160002060006101000a81548173ffffffffffffffffffffffffffffffffffffffff021916908373ffffffffffffffffffffffffffffffffffffffff160217905550808273ffffffffffffffffffffffffffffffffffffffff168473ffffffffffffffffffffffffffffffffffffffff167fddf252ad1be2c89b69c2b068fc378daa952ba7f163c4a11628f55a4df523b3ef60405160405180910390a4611c7a83838360016120db565b505050565b60006002600083815260200190815260200160002060009054906101000a900473ffffffffffffffffffffffffffffffffffffffff169050919050565b8173ffffffffffffffffffffffffffffffffffffffff168373ffffffffffffffffffffffffffffffffffffffff161415611d2b576040517f08c379a0000000000000000000000000000000000000000000000000000000008152600401611d22906135e8565b60405180910390fd5b80600560008573ffffffffffffffffffffffffffffffffffffffff1673ffffffffffffffffffffffffffffffffffffffff16815260200190815260200160002060008473ffffffffffffffffffffffffffffffffffffffff1673ffffffffffffffffffffffffffffffffffffffff16815260200190815260200160002060006101000a81548160ff0219169083151502179055508173ffffffffffffffffffffffffffffffffffffffff168373ffffffffffffffffffffffffffffffffffffffff167f17307eab39ab6107e8899845ad3d59bd9653f200f220920489ca2b5937696c3183604051611e1c919061260a565b60405180910390a3505050565b611e34848484611985565b611e40848484846120e1565b611e7f576040517f08c379a0000000000000000000000000000000000000000000000000000000008152600401611e769061367a565b60405180910390fd5b50505050565b606060405180602001604052806000815250905090565b606060006001611eab84612269565b01905060008167ffffffffffffffff811115611eca57611ec9612815565b5b6040519080825280601f01601f191660200182016040528015611efc5781602001600182028036833780820191505090505b509050600082602001820190505b600115611f69578080600190039150507f3031323334353637383961626364656600000000000000000000000000000000600a86061a8153600a8581611f5357611f5261369a565b5b0494506000851415611f6457611f69565b611f0a565b819350505050919050565b60008073ffffffffffffffffffffffffffffffffffffffff16611f9683611c7f565b73ffffffffffffffffffffffffffffffffffffffff1614159050919050565b60018111156120d557600073ffffffffffffffffffffffffffffffffffffffff168473ffffffffffffffffffffffffffffffffffffffff16146120495780600360008673ffffffffffffffffffffffffffffffffffffffff1673ffffffffffffffffffffffffffffffffffffffff168152602001908152602001600020600082825461204191906136c9565b925050819055505b600073ffffffffffffffffffffffffffffffffffffffff168373ffffffffffffffffffffffffffffffffffffffff16146120d45780600360008573ffffffffffffffffffffffffffffffffffffffff1673ffffffffffffffffffffffffffffffffffffffff16815260200190815260200160002060008282546120cc919061304d565b925050819055505b5b50505050565b50505050565b60006121028473ffffffffffffffffffffffffffffffffffffffff166123bc565b1561225c578373ffffffffffffffffffffffffffffffffffffffff1663150b7a0261212b611611565b8786866040518563ffffffff1660e01b815260040161214d9493929190613747565b6020604051808303816000875af192505050801561218957506040513d601f19601f8201168201806040525081019061218691906137a8565b60015b61220c573d80600081146121b9576040519150601f19603f3d011682016040523d82523d6000602084013e6121be565b606091505b50600081511415612204576040517f08c379a00000000000000000000000000000000000000000000000000000000081526004016121fb9061367a565b60405180910390fd5b805181602001fd5b63150b7a0260e01b7bffffffffffffffffffffffffffffffffffffffffffffffffffffffff1916817bffffffffffffffffffffffffffffffffffffffffffffffffffffffff191614915050612261565b600190505b949350505050565b600080600090507a184f03e93ff9f4daa797ed6e38ed64bf6a1f01000000000000000083106122c7577a184f03e93ff9f4daa797ed6e38ed64bf6a1f01000000000000000083816122bd576122bc61369a565b5b0492506040810190505b6d04ee2d6d415b85acef81000000008310612304576d04ee2d6d415b85acef810000000083816122fa576122f961369a565b5b0492506020810190505b662386f26fc10000831061233357662386f26fc1000083816123295761232861369a565b5b0492506010810190505b6305f5e100831061235c576305f5e10083816123525761235161369a565b5b0492506008810190505b61271083106123815761271083816123775761237661369a565b5b0492506004810190505b606483106123a4576064838161239a5761239961369a565b5b0492506002810190505b600a83106123b3576001810190505b80915050919050565b6000808273ffffffffffffffffffffffffffffffffffffffff163b119050919050565b8280546123eb90612ec8565b90600052602060002090601f01602090048101928261240d5760008555612454565b82601f1061242657805160ff1916838001178555612454565b82800160010185558215612454579182015b82811115612453578251825591602001919060010190612438565b5b5090506124619190612539565b5090565b82805461247190612ec8565b90600052602060002090601f01602090048101928261249357600085556124da565b82601f106124ac57805160ff19168380011785556124da565b828001600101855582156124da579182015b828111156124d95782518255916020019190600101906124be565b5b5090506124e79190612539565b5090565b60405180610120016040528060008152602001606081526020016060815260200160608152602001600081526020016000815260200160008152602001600015158152602001606081525090565b5b8082111561255257600081600090555060010161253a565b5090565b6000604051905090565b600080fd5b600080fd5b60007fffffffff0000000000000000000000000000000000000000000000000000000082169050919050565b61259f8161256a565b81146125aa57600080fd5b50565b6000813590506125bc81612596565b92915050565b6000602082840312156125d8576125d7612560565b5b60006125e6848285016125ad565b91505092915050565b60008115159050919050565b612604816125ef565b82525050565b600060208201905061261f60008301846125fb565b92915050565b600081519050919050565b600082825260208201905092915050565b60005b8381101561265f578082015181840152602081019050612644565b8381111561266e576000848401525b50505050565b6000601f19601f8301169050919050565b600061269082612625565b61269a8185612630565b93506126aa818560208601612641565b6126b381612674565b840191505092915050565b600060208201905081810360008301526126d88184612685565b905092915050565b6000819050919050565b6126f3816126e0565b81146126fe57600080fd5b50565b600081359050612710816126ea565b92915050565b60006020828403121561272c5761272b612560565b5b600061273a84828501612701565b91505092915050565b600073ffffffffffffffffffffffffffffffffffffffff82169050919050565b600061276e82612743565b9050919050565b61277e81612763565b82525050565b60006020820190506127996000830184612775565b92915050565b6127a881612763565b81146127b357600080fd5b50565b6000813590506127c58161279f565b92915050565b600080604083850312156127e2576127e1612560565b5b60006127f0858286016127b6565b925050602061280185828601612701565b9150509250929050565b600080fd5b600080fd5b7f4e487b7100000000000000000000000000000000000000000000000000000000600052604160045260246000fd5b61284d82612674565b810181811067ffffffffffffffff8211171561286c5761286b612815565b5b80604052505050565b600061287f612556565b905061288b8282612844565b919050565b600067ffffffffffffffff8211156128ab576128aa612815565b5b6128b482612674565b9050602081019050919050565b82818337600083830152505050565b60006128e36128de84612890565b612875565b9050828152602081018484840111156128ff576128fe612810565b5b61290a8482856128c1565b509392505050565b600082601f8301126129275761292661280b565b5b81356129378482602086016128d0565b91505092915050565b600067ffffffffffffffff82111561295b5761295a612815565b5b61296482612674565b9050602081019050919050565b600061298461297f84612940565b612875565b9050828152602081018484840111156129a05761299f612810565b5b6129ab8482856128c1565b509392505050565b600082601f8301126129c8576129c761280b565b5b81356129d8848260208601612971565b91505092915050565b600080600080600080600080610100898b031215612a0257612a01612560565b5b6000612a108b828c01612701565b985050602089013567ffffffffffffffff811115612a3157612a30612565565b5b612a3d8b828c01612912565b975050604089013567ffffffffffffffff811115612a5e57612a5d612565565b5b612a6a8b828c01612912565b965050606089013567ffffffffffffffff811115612a8b57612a8a612565565b5b612a978b828c01612912565b9550506080612aa88b828c01612701565b94505060a0612ab98b828c01612701565b93505060c0612aca8b828c01612701565b92505060e089013567ffffffffffffffff811115612aeb57612aea612565565b5b612af78b828c016129b3565b9150509295985092959890939650565b600080600060608486031215612b2057612b1f612560565b5b6000612b2e868287016127b6565b9350506020612b3f868287016127b6565b9250506040612b5086828701612701565b9150509250925092565b600060208284031215612b7057612b6f612560565b5b6000612b7e848285016127b6565b91505092915050565b612b90816126e0565b82525050565b6000602082019050612bab6000830184612b87565b92915050565b612bba816125ef565b8114612bc557600080fd5b50565b600081359050612bd781612bb1565b92915050565b60008060408385031215612bf457612bf3612560565b5b6000612c02858286016127b6565b9250506020612c1385828601612bc8565b9150509250929050565b60008060008060808587031215612c3757612c36612560565b5b6000612c45878288016127b6565b9450506020612c56878288016127b6565b9350506040612c6787828801612701565b925050606085013567ffffffffffffffff811115612c8857612c87612565565b5b612c94878288016129b3565b91505092959194509250565b60008060408385031215612cb757612cb6612560565b5b6000612cc5858286016127b6565b9250506020612cd6858286016127b6565b9150509250929050565b612ce9816126e0565b82525050565b600082825260208201905092915050565b6000612d0b82612625565b612d158185612cef565b9350612d25818560208601612641565b612d2e81612674565b840191505092915050565b612d42816125ef565b82525050565b600081519050919050565b600082825260208201905092915050565b6000612d6f82612d48565b612d798185612d53565b9350612d89818560208601612641565b612d9281612674565b840191505092915050565b600061012083016000830151612db66000860182612ce0565b5060208301518482036020860152612dce8282612d00565b91505060408301518482036040860152612de88282612d00565b91505060608301518482036060860152612e028282612d00565b9150506080830151612e176080860182612ce0565b5060a0830151612e2a60a0860182612ce0565b5060c0830151612e3d60c0860182612ce0565b5060e0830151612e5060e0860182612d39565b50610100830151848203610100860152612e6a8282612d64565b9150508091505092915050565b60006020820190508181036000830152612e918184612d9d565b905092915050565b7f4e487b7100000000000000000000000000000000000000000000000000000000600052602260045260246000fd5b60006002820490506001821680612ee057607f821691505b60208210811415612ef457612ef3612e99565b5b50919050565b7f4552433732313a20617070726f76616c20746f2063757272656e74206f776e6560008201527f7200000000000000000000000000000000000000000000000000000000000000602082015250565b6000612f56602183612630565b9150612f6182612efa565b604082019050919050565b60006020820190508181036000830152612f8581612f49565b9050919050565b7f4552433732313a20617070726f76652063616c6c6572206973206e6f7420746f60008201527f6b656e206f776e6572206f7220617070726f76656420666f7220616c6c000000602082015250565b6000612fe8603d83612630565b9150612ff382612f8c565b604082019050919050565b6000602082019050818103600083015261301781612fdb565b9050919050565b7f4e487b7100000000000000000000000000000000000000000000000000000000600052601160045260246000fd5b6000613058826126e0565b9150613063836126e0565b9250827fffffffffffffffffffffffffffffffffffffffffffffffffffffffffffffffff038211156130985761309761301e565b5b828201905092915050565b7f4552433732313a2063616c6c6572206973206e6f7420746f6b656e206f776e6560008201527f72206f7220617070726f76656400000000000000000000000000000000000000602082015250565b60006130ff602d83612630565b915061310a826130a3565b604082019050919050565b6000602082019050818103600083015261312e816130f2565b9050919050565b7f4e487b7100000000000000000000000000000000000000000000000000000000600052603260045260246000fd5b600061316f826126e0565b91507fffffffffffffffffffffffffffffffffffffffffffffffffffffffffffffffff8214156131a2576131a161301e565b5b600182019050919050565b7f43616e742774206269642c206d616b65206120686967686572204269642e0000600082015250565b60006131e3601e83612630565b91506131ee826131ad565b602082019050919050565b60006020820190508181036000830152613212816131d6565b9050919050565b600060408201905061322e6000830185612775565b61323b6020830184612b87565b9392505050565b7f4552433732313a20696e76616c696420746f6b656e2049440000000000000000600082015250565b6000613278601883612630565b915061328382613242565b602082019050919050565b600060208201905081810360008301526132a78161326b565b9050919050565b7f4552433732313a2061646472657373207a65726f206973206e6f74206120766160008201527f6c6964206f776e65720000000000000000000000000000000000000000000000602082015250565b600061330a602983612630565b9150613315826132ae565b604082019050919050565b60006020820190508181036000830152613339816132fd565b9050919050565b600081905092915050565b600061335682612625565b6133608185613340565b9350613370818560208601612641565b80840191505092915050565b6000613388828561334b565b9150613394828461334b565b91508190509392505050565b7f4552433732313a206d696e7420746f20746865207a65726f2061646472657373600082015250565b60006133d6602083612630565b91506133e1826133a0565b602082019050919050565b60006020820190508181036000830152613405816133c9565b9050919050565b7f4552433732313a20746f6b656e20616c7265616479206d696e74656400000000600082015250565b6000613442601c83612630565b915061344d8261340c565b602082019050919050565b6000602082019050818103600083015261347181613435565b9050919050565b7f4552433732313a207472616e736665722066726f6d20696e636f72726563742060008201527f6f776e6572000000000000000000000000000000000000000000000000000000602082015250565b60006134d4602583612630565b91506134df82613478565b604082019050919050565b60006020820190508181036000830152613503816134c7565b9050919050565b7f4552433732313a207472616e7366657220746f20746865207a65726f2061646460008201527f7265737300000000000000000000000000000000000000000000000000000000602082015250565b6000613566602483612630565b91506135718261350a565b604082019050919050565b6000602082019050818103600083015261359581613559565b9050919050565b7f4552433732313a20617070726f766520746f2063616c6c657200000000000000600082015250565b60006135d2601983612630565b91506135dd8261359c565b602082019050919050565b60006020820190508181036000830152613601816135c5565b9050919050565b7f4552433732313a207472616e7366657220746f206e6f6e20455243373231526560008201527f63656976657220696d706c656d656e7465720000000000000000000000000000602082015250565b6000613664603283612630565b915061366f82613608565b604082019050919050565b6000602082019050818103600083015261369381613657565b9050919050565b7f4e487b7100000000000000000000000000000000000000000000000000000000600052601260045260246000fd5b60006136d4826126e0565b91506136df836126e0565b9250828210156136f2576136f161301e565b5b828203905092915050565b600082825260208201905092915050565b600061371982612d48565b61372381856136fd565b9350613733818560208601612641565b61373c81612674565b840191505092915050565b600060808201905061375c6000830187612775565b6137696020830186612775565b6137766040830185612b87565b8181036060830152613788818461370e565b905095945050505050565b6000815190506137a281612596565b92915050565b6000602082840312156137be576137bd612560565b5b60006137cc84828501613793565b9150509291505056fea2646970667358221220b20ba2e6cd420e98fb86af7fe6b1c6c509c652bb17c384889f19d4b5d6029a6764736f6c634300080a0033",
  "immutableReferences": {},
  "source": "// SPDX-License-Identifier: MIT\r\npragma solidity 0.8.10;\r\n\r\nimport \"./Land.sol\"; \r\n\r\ncontract LandSale is LandRegistration {\r\n    \r\n    struct BidDetail {\r\n        uint256 highestBid;\r\n        address highestBidder;\r\n        mapping(address => uint256) bids;\r\n        address[] bidders;\r\n    }\r\n\r\n    mapping(uint256 => BidDetail) BidDetails;\r\n\r\n    function bid(uint256 landID) public payable {\r\n        require(msg.sender != ownerOf(landID));\r\n        require(BidDetails[landID].bids[msg.sender] + msg.value > BidDetails[landID].highestBid, \"Cant't bid, make a higher Bid.\");\r\n        BidDetails[landID].highestBidder = msg.sender;\r\n        BidDetails[landID].bidders.push(msg.sender);\r\n        BidDetails[landID].highestBid =\r\n            BidDetails[landID].bids[msg.sender] +\r\n            msg.value;\r\n        BidDetails[landID].bids[msg.sender] += msg.value;\r\n        emit BidEvent(landID, BidDetails[landID].highestBidder, BidDetails[landID].highestBid);\r\n    }    \r\n    \r\n    function acceptBid(uint256 landID) public  {\r\n        payable(msg.sender).transfer(BidDetails[landID].highestBid);\r\n        safeTransferFrom(msg.sender, BidDetails[landID].highestBidder, landID);\r\n        for (uint256 i = 0; i < BidDetails[landID].bidders.length; i++) {\r\n            if (BidDetails[landID].bidders[i] == BidDetails[landID].highestBidder) {\r\n                continue;\r\n            }\r\n            payable(BidDetails[landID].bidders[i]).transfer(BidDetails[landID].bids[BidDetails[landID].bidders[i]]);\r\n        }\r\n        LandDetails[landID].salesStatus = true;\r\n    }\r\n    \r\n    fallback () external {\r\n        revert();\r\n    }\r\n\r\n    event BidEvent(uint256 indexed landID, address highestBidder, uint256 highestBid);\r\n}",
  "sourcePath": "/home/rishal/EthereumLab/Land-Marketplace-Template-main/contracts/LandSale.sol",
  "compiler": {
    "name": "solc",
    "version": "0.8.10+commit.fc410830.Emscripten.clang"
  },
  "schemaVersion": "3.4.11",
  "updatedAt": "2023-02-20T16:19:24.879Z",
  "networkType": "ethereum",
  "devdoc": {
    "kind": "dev",
    "methods": {
      "approve(address,uint256)": {
        "details": "See {IERC721-approve}."
      },
      "balanceOf(address)": {
        "details": "See {IERC721-balanceOf}."
      },
      "getApproved(uint256)": {
        "details": "See {IERC721-getApproved}."
      },
      "isApprovedForAll(address,address)": {
        "details": "See {IERC721-isApprovedForAll}."
      },
      "name()": {
        "details": "See {IERC721Metadata-name}."
      },
      "ownerOf(uint256)": {
        "details": "See {IERC721-ownerOf}."
      },
      "safeTransferFrom(address,address,uint256)": {
        "details": "See {IERC721-safeTransferFrom}."
      },
      "safeTransferFrom(address,address,uint256,bytes)": {
        "details": "See {IERC721-safeTransferFrom}."
      },
      "setApprovalForAll(address,bool)": {
        "details": "See {IERC721-setApprovalForAll}."
      },
      "supportsInterface(bytes4)": {
        "details": "See {IERC165-supportsInterface}."
      },
      "symbol()": {
        "details": "See {IERC721Metadata-symbol}."
      },
      "tokenURI(uint256)": {
        "details": "See {IERC721Metadata-tokenURI}."
      },
      "transferFrom(address,address,uint256)": {
        "details": "See {IERC721-transferFrom}."
      }
    },
    "version": 1
  },
  "userdoc": {
    "kind": "user",
    "methods": {},
    "version": 1
  }
}