{
  "contractName": "LandRegistration",
  "abi": [
    {
      "inputs": [],
      "stateMutability": "nonpayable",
      "type": "constructor"
    },
    {
      "anonymous": false,
      "inputs": [
        {
          "indexed": true,
          "internalType": "address",
          "name": "owner",
          "type": "address"
        },
        {
          "indexed": true,
          "internalType": "address",
          "name": "approved",
          "type": "address"
        },
        {
          "indexed": true,
          "internalType": "uint256",
          "name": "tokenId",
          "type": "uint256"
        }
      ],
      "name": "Approval",
      "type": "event"
    },
    {
      "anonymous": false,
      "inputs": [
        {
          "indexed": true,
          "internalType": "address",
          "name": "owner",
          "type": "address"
        },
        {
          "indexed": true,
          "internalType": "address",
          "name": "operator",
          "type": "address"
        },
        {
          "indexed": false,
          "internalType": "bool",
          "name": "approved",
          "type": "bool"
        }
      ],
      "name": "ApprovalForAll",
      "type": "event"
    },
    {
      "anonymous": false,
      "inputs": [
        {
          "indexed": true,
          "internalType": "address",
          "name": "from",
          "type": "address"
        },
        {
          "indexed": true,
          "internalType": "address",
          "name": "to",
          "type": "address"
        },
        {
          "indexed": true,
          "internalType": "uint256",
          "name": "tokenId",
          "type": "uint256"
        }
      ],
      "name": "Transfer",
      "type": "event"
    },
    {
      "inputs": [
        {
          "internalType": "address",
          "name": "to",
          "type": "address"
        },
        {
          "internalType": "uint256",
          "name": "tokenId",
          "type": "uint256"
        }
      ],
      "name": "approve",
      "outputs": [],
      "stateMutability": "nonpayable",
      "type": "function"
    },
    {
      "inputs": [
        {
          "internalType": "address",
          "name": "owner",
          "type": "address"
        }
      ],
      "name": "balanceOf",
      "outputs": [
        {
          "internalType": "uint256",
          "name": "",
          "type": "uint256"
        }
      ],
      "stateMutability": "view",
      "type": "function"
    },
    {
      "inputs": [
        {
          "internalType": "uint256",
          "name": "tokenId",
          "type": "uint256"
        }
      ],
      "name": "getApproved",
      "outputs": [
        {
          "internalType": "address",
          "name": "",
          "type": "address"
        }
      ],
      "stateMutability": "view",
      "type": "function"
    },
    {
      "inputs": [
        {
          "internalType": "address",
          "name": "owner",
          "type": "address"
        },
        {
          "internalType": "address",
          "name": "operator",
          "type": "address"
        }
      ],
      "name": "isApprovedForAll",
      "outputs": [
        {
          "internalType": "bool",
          "name": "",
          "type": "bool"
        }
      ],
      "stateMutability": "view",
      "type": "function"
    },
    {
      "inputs": [],
      "name": "name",
      "outputs": [
        {
          "internalType": "string",
          "name": "",
          "type": "string"
        }
      ],
      "stateMutability": "view",
      "type": "function"
    },
    {
      "inputs": [
        {
          "internalType": "uint256",
          "name": "tokenId",
          "type": "uint256"
        }
      ],
      "name": "ownerOf",
      "outputs": [
        {
          "internalType": "address",
          "name": "",
          "type": "address"
        }
      ],
      "stateMutability": "view",
      "type": "function"
    },
    {
      "inputs": [],
      "name": "registeredLandCount",
      "outputs": [
        {
          "internalType": "uint256",
          "name": "",
          "type": "uint256"
        }
      ],
      "stateMutability": "view",
      "type": "function"
    },
    {
      "inputs": [
        {
          "internalType": "address",
          "name": "from",
          "type": "address"
        },
        {
          "internalType": "address",
          "name": "to",
          "type": "address"
        },
        {
          "internalType": "uint256",
          "name": "tokenId",
          "type": "uint256"
        }
      ],
      "name": "safeTransferFrom",
      "outputs": [],
      "stateMutability": "nonpayable",
      "type": "function"
    },
    {
      "inputs": [
        {
          "internalType": "address",
          "name": "from",
          "type": "address"
        },
        {
          "internalType": "address",
          "name": "to",
          "type": "address"
        },
        {
          "internalType": "uint256",
          "name": "tokenId",
          "type": "uint256"
        },
        {
          "internalType": "bytes",
          "name": "data",
          "type": "bytes"
        }
      ],
      "name": "safeTransferFrom",
      "outputs": [],
      "stateMutability": "nonpayable",
      "type": "function"
    },
    {
      "inputs": [
        {
          "internalType": "address",
          "name": "operator",
          "type": "address"
        },
        {
          "internalType": "bool",
          "name": "approved",
          "type": "bool"
        }
      ],
      "name": "setApprovalForAll",
      "outputs": [],
      "stateMutability": "nonpayable",
      "type": "function"
    },
    {
      "inputs": [
        {
          "internalType": "bytes4",
          "name": "interfaceId",
          "type": "bytes4"
        }
      ],
      "name": "supportsInterface",
      "outputs": [
        {
          "internalType": "bool",
          "name": "",
          "type": "bool"
        }
      ],
      "stateMutability": "view",
      "type": "function"
    },
    {
      "inputs": [],
      "name": "symbol",
      "outputs": [
        {
          "internalType": "string",
          "name": "",
          "type": "string"
        }
      ],
      "stateMutability": "view",
      "type": "function"
    },
    {
      "inputs": [
        {
          "internalType": "uint256",
          "name": "tokenId",
          "type": "uint256"
        }
      ],
      "name": "tokenURI",
      "outputs": [
        {
          "internalType": "string",
          "name": "",
          "type": "string"
        }
      ],
      "stateMutability": "view",
      "type": "function"
    },
    {
      "inputs": [
        {
          "internalType": "address",
          "name": "from",
          "type": "address"
        },
        {
          "internalType": "address",
          "name": "to",
          "type": "address"
        },
        {
          "internalType": "uint256",
          "name": "tokenId",
          "type": "uint256"
        }
      ],
      "name": "transferFrom",
      "outputs": [],
      "stateMutability": "nonpayable",
      "type": "function"
    },
    {
      "inputs": [
        {
          "internalType": "uint256",
          "name": "surveyNo",
          "type": "uint256"
        },
        {
          "internalType": "string",
          "name": "district",
          "type": "string"
        },
        {
          "internalType": "string",
          "name": "taluk",
          "type": "string"
        },
        {
          "internalType": "string",
          "name": "village",
          "type": "string"
        },
        {
          "internalType": "uint256",
          "name": "blockNo",
          "type": "uint256"
        },
        {
          "internalType": "uint256",
          "name": "landValue",
          "type": "uint256"
        },
        {
          "internalType": "uint256",
          "name": "area",
          "type": "uint256"
        },
        {
          "internalType": "bytes",
          "name": "documentHash",
          "type": "bytes"
        }
      ],
      "name": "registerNewLand",
      "outputs": [],
      "stateMutability": "nonpayable",
      "type": "function"
    },
    {
      "inputs": [
        {
          "internalType": "uint256",
          "name": "landID",
          "type": "uint256"
        }
      ],
      "name": "getLandDetails",
      "outputs": [
        {
          "components": [
            {
              "internalType": "uint256",
              "name": "surveyNo",
              "type": "uint256"
            },
            {
              "internalType": "string",
              "name": "district",
              "type": "string"
            },
            {
              "internalType": "string",
              "name": "taluk",
              "type": "string"
            },
            {
              "internalType": "string",
              "name": "village",
              "type": "string"
            },
            {
              "internalType": "uint256",
              "name": "blockNo",
              "type": "uint256"
            },
            {
              "internalType": "uint256",
              "name": "landValue",
              "type": "uint256"
            },
            {
              "internalType": "uint256",
              "name": "area",
              "type": "uint256"
            },
            {
              "internalType": "bool",
              "name": "salesStatus",
              "type": "bool"
            },
            {
              "internalType": "bytes",
              "name": "documentHash",
              "type": "bytes"
            }
          ],
          "internalType": "struct LandRegistration.LandDetail",
          "name": "",
          "type": "tuple"
        }
      ],
      "stateMutability": "view",
      "type": "function"
    }
  ],
  "bytecode": "0x608060405260006007553480156200001657600080fd5b506040518060400160405280600481526020017f4c616e64000000000000000000000000000000000000000000000000000000008152506040518060400160405280600381526020017f4c4e44000000000000000000000000000000000000000000000000000000000081525081600090805190602001906200009b929190620000bd565b508060019080519060200190620000b4929190620000bd565b505050620001d2565b828054620000cb906200019c565b90600052602060002090601f016020900481019282620000ef57600085556200013b565b82601f106200010a57805160ff19168380011785556200013b565b828001600101855582156200013b579182015b828111156200013a5782518255916020019190600101906200011d565b5b5090506200014a91906200014e565b5090565b5b80821115620001695760008160009055506001016200014f565b5090565b7f4e487b7100000000000000000000000000000000000000000000000000000000600052602260045260246000fd5b60006002820490506001821680620001b557607f821691505b60208210811415620001cc57620001cb6200016d565b5b50919050565b612f9780620001e26000396000f3fe608060405234801561001057600080fd5b50600436106101005760003560e01c806370a0823111610097578063b88d4fde11610066578063b88d4fde146102ab578063c87b56dd146102c7578063e985e9c5146102f7578063fe0cb7dc1461032757610100565b806370a082311461022357806395d89b4114610253578063a22cb46514610271578063a7613a7d1461028d57610100565b806310d10780116100d357806310d107801461019f57806323b872dd146101bb57806342842e0e146101d75780636352211e146101f357610100565b806301ffc9a71461010557806306fdde0314610135578063081812fc14610153578063095ea7b314610183575b600080fd5b61011f600480360381019061011a9190611e5b565b610357565b60405161012c9190611ea3565b60405180910390f35b61013d610439565b60405161014a9190611f57565b60405180910390f35b61016d60048036038101906101689190611faf565b6104cb565b60405161017a919061201d565b60405180910390f35b61019d60048036038101906101989190612064565b610511565b005b6101b960048036038101906101b4919061227a565b610629565b005b6101d560048036038101906101d091906123a0565b610771565b005b6101f160048036038101906101ec91906123a0565b6107d1565b005b61020d60048036038101906102089190611faf565b6107f1565b60405161021a919061201d565b60405180910390f35b61023d600480360381019061023891906123f3565b610878565b60405161024a919061242f565b60405180910390f35b61025b610930565b6040516102689190611f57565b60405180910390f35b61028b60048036038101906102869190612476565b6109c2565b005b6102956109d8565b6040516102a2919061242f565b60405180910390f35b6102c560048036038101906102c091906124b6565b6109de565b005b6102e160048036038101906102dc9190611faf565b610a40565b6040516102ee9190611f57565b60405180910390f35b610311600480360381019061030c9190612539565b610aa8565b60405161031e9190611ea3565b60405180910390f35b610341600480360381019061033c9190611faf565b610b3c565b60405161034e9190612710565b60405180910390f35b60007f80ac58cd000000000000000000000000000000000000000000000000000000007bffffffffffffffffffffffffffffffffffffffffffffffffffffffff1916827bffffffffffffffffffffffffffffffffffffffffffffffffffffffff1916148061042257507f5b5e139f000000000000000000000000000000000000000000000000000000007bffffffffffffffffffffffffffffffffffffffffffffffffffffffff1916827bffffffffffffffffffffffffffffffffffffffffffffffffffffffff1916145b80610432575061043182610df5565b5b9050919050565b60606000805461044890612761565b80601f016020809104026020016040519081016040528092919081815260200182805461047490612761565b80156104c15780601f10610496576101008083540402835291602001916104c1565b820191906000526020600020905b8154815290600101906020018083116104a457829003601f168201915b5050505050905090565b60006104d682610e5f565b6004600083815260200190815260200160002060009054906101000a900473ffffffffffffffffffffffffffffffffffffffff169050919050565b600061051c826107f1565b90508073ffffffffffffffffffffffffffffffffffffffff168373ffffffffffffffffffffffffffffffffffffffff16141561058d576040517f08c379a000000000000000000000000000000000000000000000000000000000815260040161058490612805565b60405180910390fd5b8073ffffffffffffffffffffffffffffffffffffffff166105ac610eaa565b73ffffffffffffffffffffffffffffffffffffffff1614806105db57506105da816105d5610eaa565b610aa8565b5b61061a576040517f08c379a000000000000000000000000000000000000000000000000000000000815260040161061190612897565b60405180910390fd5b6106248383610eb2565b505050565b604051806101200160405280898152602001888152602001878152602001868152602001858152602001848152602001838152602001600015158152602001828152506006600060075481526020019081526020016000206000820151816000015560208201518160010190805190602001906106a7929190611c78565b5060408201518160020190805190602001906106c4929190611c78565b5060608201518160030190805190602001906106e1929190611c78565b506080820151816004015560a0820151816005015560c0820151816006015560e08201518160070160006101000a81548160ff02191690831515021790555061010082015181600801908051906020019061073d929190611cfe565b5090505061074d33600754610f6b565b60016007600082825461076091906128e6565b925050819055505050505050505050565b61078261077c610eaa565b82611189565b6107c1576040517f08c379a00000000000000000000000000000000000000000000000000000000081526004016107b8906129ae565b60405180910390fd5b6107cc83838361121e565b505050565b6107ec838383604051806020016040528060008152506109de565b505050565b6000806107fd83611518565b9050600073ffffffffffffffffffffffffffffffffffffffff168173ffffffffffffffffffffffffffffffffffffffff16141561086f576040517f08c379a000000000000000000000000000000000000000000000000000000000815260040161086690612a1a565b60405180910390fd5b80915050919050565b60008073ffffffffffffffffffffffffffffffffffffffff168273ffffffffffffffffffffffffffffffffffffffff1614156108e9576040517f08c379a00000000000000000000000000000000000000000000000000000000081526004016108e090612aac565b60405180910390fd5b600360008373ffffffffffffffffffffffffffffffffffffffff1673ffffffffffffffffffffffffffffffffffffffff168152602001908152602001600020549050919050565b60606001805461093f90612761565b80601f016020809104026020016040519081016040528092919081815260200182805461096b90612761565b80156109b85780601f1061098d576101008083540402835291602001916109b8565b820191906000526020600020905b81548152906001019060200180831161099b57829003601f168201915b5050505050905090565b6109d46109cd610eaa565b8383611555565b5050565b60075481565b6109ef6109e9610eaa565b83611189565b610a2e576040517f08c379a0000000000000000000000000000000000000000000000000000000008152600401610a25906129ae565b60405180910390fd5b610a3a848484846116c2565b50505050565b6060610a4b82610e5f565b6000610a5561171e565b90506000815111610a755760405180602001604052806000815250610aa0565b80610a7f84611735565b604051602001610a90929190612b08565b6040516020818303038152906040525b915050919050565b6000600560008473ffffffffffffffffffffffffffffffffffffffff1673ffffffffffffffffffffffffffffffffffffffff16815260200190815260200160002060008373ffffffffffffffffffffffffffffffffffffffff1673ffffffffffffffffffffffffffffffffffffffff16815260200190815260200160002060009054906101000a900460ff16905092915050565b610b44611d84565b600660008381526020019081526020016000206040518061012001604052908160008201548152602001600182018054610b7d90612761565b80601f0160208091040260200160405190810160405280929190818152602001828054610ba990612761565b8015610bf65780601f10610bcb57610100808354040283529160200191610bf6565b820191906000526020600020905b815481529060010190602001808311610bd957829003601f168201915b50505050508152602001600282018054610c0f90612761565b80601f0160208091040260200160405190810160405280929190818152602001828054610c3b90612761565b8015610c885780601f10610c5d57610100808354040283529160200191610c88565b820191906000526020600020905b815481529060010190602001808311610c6b57829003601f168201915b50505050508152602001600382018054610ca190612761565b80601f0160208091040260200160405190810160405280929190818152602001828054610ccd90612761565b8015610d1a5780601f10610cef57610100808354040283529160200191610d1a565b820191906000526020600020905b815481529060010190602001808311610cfd57829003601f168201915b505050505081526020016004820154815260200160058201548152602001600682015481526020016007820160009054906101000a900460ff16151515158152602001600882018054610d6c90612761565b80601f0160208091040260200160405190810160405280929190818152602001828054610d9890612761565b8015610de55780601f10610dba57610100808354040283529160200191610de5565b820191906000526020600020905b815481529060010190602001808311610dc857829003601f168201915b5050505050815250509050919050565b60007f01ffc9a7000000000000000000000000000000000000000000000000000000007bffffffffffffffffffffffffffffffffffffffffffffffffffffffff1916827bffffffffffffffffffffffffffffffffffffffffffffffffffffffff1916149050919050565b610e688161180d565b610ea7576040517f08c379a0000000000000000000000000000000000000000000000000000000008152600401610e9e90612a1a565b60405180910390fd5b50565b600033905090565b816004600083815260200190815260200160002060006101000a81548173ffffffffffffffffffffffffffffffffffffffff021916908373ffffffffffffffffffffffffffffffffffffffff160217905550808273ffffffffffffffffffffffffffffffffffffffff16610f25836107f1565b73ffffffffffffffffffffffffffffffffffffffff167f8c5be1e5ebec7d5bd14f71427d1e84f3dd0314c0f7b2291e5b200ac8c7c3b92560405160405180910390a45050565b600073ffffffffffffffffffffffffffffffffffffffff168273ffffffffffffffffffffffffffffffffffffffff161415610fdb576040517f08c379a0000000000000000000000000000000000000000000000000000000008152600401610fd290612b78565b60405180910390fd5b610fe48161180d565b15611024576040517f08c379a000000000000000000000000000000000000000000000000000000000815260040161101b90612be4565b60405180910390fd5b61103260008383600161184e565b61103b8161180d565b1561107b576040517f08c379a000000000000000000000000000000000000000000000000000000000815260040161107290612be4565b60405180910390fd5b6001600360008473ffffffffffffffffffffffffffffffffffffffff1673ffffffffffffffffffffffffffffffffffffffff16815260200190815260200160002060008282540192505081905550816002600083815260200190815260200160002060006101000a81548173ffffffffffffffffffffffffffffffffffffffff021916908373ffffffffffffffffffffffffffffffffffffffff160217905550808273ffffffffffffffffffffffffffffffffffffffff16600073ffffffffffffffffffffffffffffffffffffffff167fddf252ad1be2c89b69c2b068fc378daa952ba7f163c4a11628f55a4df523b3ef60405160405180910390a4611185600083836001611974565b5050565b600080611195836107f1565b90508073ffffffffffffffffffffffffffffffffffffffff168473ffffffffffffffffffffffffffffffffffffffff1614806111d757506111d68185610aa8565b5b8061121557508373ffffffffffffffffffffffffffffffffffffffff166111fd846104cb565b73ffffffffffffffffffffffffffffffffffffffff16145b91505092915050565b8273ffffffffffffffffffffffffffffffffffffffff1661123e826107f1565b73ffffffffffffffffffffffffffffffffffffffff1614611294576040517f08c379a000000000000000000000000000000000000000000000000000000000815260040161128b90612c76565b60405180910390fd5b600073ffffffffffffffffffffffffffffffffffffffff168273ffffffffffffffffffffffffffffffffffffffff161415611304576040517f08c379a00000000000000000000000000000000000000000000000000000000081526004016112fb90612d08565b60405180910390fd5b611311838383600161184e565b8273ffffffffffffffffffffffffffffffffffffffff16611331826107f1565b73ffffffffffffffffffffffffffffffffffffffff1614611387576040517f08c379a000000000000000000000000000000000000000000000000000000000815260040161137e90612c76565b60405180910390fd5b6004600082815260200190815260200160002060006101000a81549073ffffffffffffffffffffffffffffffffffffffff02191690556001600360008573ffffffffffffffffffffffffffffffffffffffff1673ffffffffffffffffffffffffffffffffffffffff168152602001908152602001600020600082825403925050819055506001600360008473ffffffffffffffffffffffffffffffffffffffff1673ffffffffffffffffffffffffffffffffffffffff16815260200190815260200160002060008282540192505081905550816002600083815260200190815260200160002060006101000a81548173ffffffffffffffffffffffffffffffffffffffff021916908373ffffffffffffffffffffffffffffffffffffffff160217905550808273ffffffffffffffffffffffffffffffffffffffff168473ffffffffffffffffffffffffffffffffffffffff167fddf252ad1be2c89b69c2b068fc378daa952ba7f163c4a11628f55a4df523b3ef60405160405180910390a46115138383836001611974565b505050565b60006002600083815260200190815260200160002060009054906101000a900473ffffffffffffffffffffffffffffffffffffffff169050919050565b8173ffffffffffffffffffffffffffffffffffffffff168373ffffffffffffffffffffffffffffffffffffffff1614156115c4576040517f08c379a00000000000000000000000000000000000000000000000000000000081526004016115bb90612d74565b60405180910390fd5b80600560008573ffffffffffffffffffffffffffffffffffffffff1673ffffffffffffffffffffffffffffffffffffffff16815260200190815260200160002060008473ffffffffffffffffffffffffffffffffffffffff1673ffffffffffffffffffffffffffffffffffffffff16815260200190815260200160002060006101000a81548160ff0219169083151502179055508173ffffffffffffffffffffffffffffffffffffffff168373ffffffffffffffffffffffffffffffffffffffff167f17307eab39ab6107e8899845ad3d59bd9653f200f220920489ca2b5937696c31836040516116b59190611ea3565b60405180910390a3505050565b6116cd84848461121e565b6116d98484848461197a565b611718576040517f08c379a000000000000000000000000000000000000000000000000000000000815260040161170f90612e06565b60405180910390fd5b50505050565b606060405180602001604052806000815250905090565b60606000600161174484611b02565b01905060008167ffffffffffffffff811115611763576117626120ae565b5b6040519080825280601f01601f1916602001820160405280156117955781602001600182028036833780820191505090505b509050600082602001820190505b600115611802578080600190039150507f3031323334353637383961626364656600000000000000000000000000000000600a86061a8153600a85816117ec576117eb612e26565b5b04945060008514156117fd57611802565b6117a3565b819350505050919050565b60008073ffffffffffffffffffffffffffffffffffffffff1661182f83611518565b73ffffffffffffffffffffffffffffffffffffffff1614159050919050565b600181111561196e57600073ffffffffffffffffffffffffffffffffffffffff168473ffffffffffffffffffffffffffffffffffffffff16146118e25780600360008673ffffffffffffffffffffffffffffffffffffffff1673ffffffffffffffffffffffffffffffffffffffff16815260200190815260200160002060008282546118da9190612e55565b925050819055505b600073ffffffffffffffffffffffffffffffffffffffff168373ffffffffffffffffffffffffffffffffffffffff161461196d5780600360008573ffffffffffffffffffffffffffffffffffffffff1673ffffffffffffffffffffffffffffffffffffffff168152602001908152602001600020600082825461196591906128e6565b925050819055505b5b50505050565b50505050565b600061199b8473ffffffffffffffffffffffffffffffffffffffff16611c55565b15611af5578373ffffffffffffffffffffffffffffffffffffffff1663150b7a026119c4610eaa565b8786866040518563ffffffff1660e01b81526004016119e69493929190612ed3565b6020604051808303816000875af1925050508015611a2257506040513d601f19601f82011682018060405250810190611a1f9190612f34565b60015b611aa5573d8060008114611a52576040519150601f19603f3d011682016040523d82523d6000602084013e611a57565b606091505b50600081511415611a9d576040517f08c379a0000000000000000000000000000000000000000000000000000000008152600401611a9490612e06565b60405180910390fd5b805181602001fd5b63150b7a0260e01b7bffffffffffffffffffffffffffffffffffffffffffffffffffffffff1916817bffffffffffffffffffffffffffffffffffffffffffffffffffffffff191614915050611afa565b600190505b949350505050565b600080600090507a184f03e93ff9f4daa797ed6e38ed64bf6a1f0100000000000000008310611b60577a184f03e93ff9f4daa797ed6e38ed64bf6a1f0100000000000000008381611b5657611b55612e26565b5b0492506040810190505b6d04ee2d6d415b85acef81000000008310611b9d576d04ee2d6d415b85acef81000000008381611b9357611b92612e26565b5b0492506020810190505b662386f26fc100008310611bcc57662386f26fc100008381611bc257611bc1612e26565b5b0492506010810190505b6305f5e1008310611bf5576305f5e1008381611beb57611bea612e26565b5b0492506008810190505b6127108310611c1a576127108381611c1057611c0f612e26565b5b0492506004810190505b60648310611c3d5760648381611c3357611c32612e26565b5b0492506002810190505b600a8310611c4c576001810190505b80915050919050565b6000808273ffffffffffffffffffffffffffffffffffffffff163b119050919050565b828054611c8490612761565b90600052602060002090601f016020900481019282611ca65760008555611ced565b82601f10611cbf57805160ff1916838001178555611ced565b82800160010185558215611ced579182015b82811115611cec578251825591602001919060010190611cd1565b5b509050611cfa9190611dd2565b5090565b828054611d0a90612761565b90600052602060002090601f016020900481019282611d2c5760008555611d73565b82601f10611d4557805160ff1916838001178555611d73565b82800160010185558215611d73579182015b82811115611d72578251825591602001919060010190611d57565b5b509050611d809190611dd2565b5090565b60405180610120016040528060008152602001606081526020016060815260200160608152602001600081526020016000815260200160008152602001600015158152602001606081525090565b5b80821115611deb576000816000905550600101611dd3565b5090565b6000604051905090565b600080fd5b600080fd5b60007fffffffff0000000000000000000000000000000000000000000000000000000082169050919050565b611e3881611e03565b8114611e4357600080fd5b50565b600081359050611e5581611e2f565b92915050565b600060208284031215611e7157611e70611df9565b5b6000611e7f84828501611e46565b91505092915050565b60008115159050919050565b611e9d81611e88565b82525050565b6000602082019050611eb86000830184611e94565b92915050565b600081519050919050565b600082825260208201905092915050565b60005b83811015611ef8578082015181840152602081019050611edd565b83811115611f07576000848401525b50505050565b6000601f19601f8301169050919050565b6000611f2982611ebe565b611f338185611ec9565b9350611f43818560208601611eda565b611f4c81611f0d565b840191505092915050565b60006020820190508181036000830152611f718184611f1e565b905092915050565b6000819050919050565b611f8c81611f79565b8114611f9757600080fd5b50565b600081359050611fa981611f83565b92915050565b600060208284031215611fc557611fc4611df9565b5b6000611fd384828501611f9a565b91505092915050565b600073ffffffffffffffffffffffffffffffffffffffff82169050919050565b600061200782611fdc565b9050919050565b61201781611ffc565b82525050565b6000602082019050612032600083018461200e565b92915050565b61204181611ffc565b811461204c57600080fd5b50565b60008135905061205e81612038565b92915050565b6000806040838503121561207b5761207a611df9565b5b60006120898582860161204f565b925050602061209a85828601611f9a565b9150509250929050565b600080fd5b600080fd5b7f4e487b7100000000000000000000000000000000000000000000000000000000600052604160045260246000fd5b6120e682611f0d565b810181811067ffffffffffffffff82111715612105576121046120ae565b5b80604052505050565b6000612118611def565b905061212482826120dd565b919050565b600067ffffffffffffffff821115612144576121436120ae565b5b61214d82611f0d565b9050602081019050919050565b82818337600083830152505050565b600061217c61217784612129565b61210e565b905082815260208101848484011115612198576121976120a9565b5b6121a384828561215a565b509392505050565b600082601f8301126121c0576121bf6120a4565b5b81356121d0848260208601612169565b91505092915050565b600067ffffffffffffffff8211156121f4576121f36120ae565b5b6121fd82611f0d565b9050602081019050919050565b600061221d612218846121d9565b61210e565b905082815260208101848484011115612239576122386120a9565b5b61224484828561215a565b509392505050565b600082601f830112612261576122606120a4565b5b813561227184826020860161220a565b91505092915050565b600080600080600080600080610100898b03121561229b5761229a611df9565b5b60006122a98b828c01611f9a565b985050602089013567ffffffffffffffff8111156122ca576122c9611dfe565b5b6122d68b828c016121ab565b975050604089013567ffffffffffffffff8111156122f7576122f6611dfe565b5b6123038b828c016121ab565b965050606089013567ffffffffffffffff81111561232457612323611dfe565b5b6123308b828c016121ab565b95505060806123418b828c01611f9a565b94505060a06123528b828c01611f9a565b93505060c06123638b828c01611f9a565b92505060e089013567ffffffffffffffff81111561238457612383611dfe565b5b6123908b828c0161224c565b9150509295985092959890939650565b6000806000606084860312156123b9576123b8611df9565b5b60006123c78682870161204f565b93505060206123d88682870161204f565b92505060406123e986828701611f9a565b9150509250925092565b60006020828403121561240957612408611df9565b5b60006124178482850161204f565b91505092915050565b61242981611f79565b82525050565b60006020820190506124446000830184612420565b92915050565b61245381611e88565b811461245e57600080fd5b50565b6000813590506124708161244a565b92915050565b6000806040838503121561248d5761248c611df9565b5b600061249b8582860161204f565b92505060206124ac85828601612461565b9150509250929050565b600080600080608085870312156124d0576124cf611df9565b5b60006124de8782880161204f565b94505060206124ef8782880161204f565b935050604061250087828801611f9a565b925050606085013567ffffffffffffffff81111561252157612520611dfe565b5b61252d8782880161224c565b91505092959194509250565b600080604083850312156125505761254f611df9565b5b600061255e8582860161204f565b925050602061256f8582860161204f565b9150509250929050565b61258281611f79565b82525050565b600082825260208201905092915050565b60006125a482611ebe565b6125ae8185612588565b93506125be818560208601611eda565b6125c781611f0d565b840191505092915050565b6125db81611e88565b82525050565b600081519050919050565b600082825260208201905092915050565b6000612608826125e1565b61261281856125ec565b9350612622818560208601611eda565b61262b81611f0d565b840191505092915050565b60006101208301600083015161264f6000860182612579565b50602083015184820360208601526126678282612599565b915050604083015184820360408601526126818282612599565b9150506060830151848203606086015261269b8282612599565b91505060808301516126b06080860182612579565b5060a08301516126c360a0860182612579565b5060c08301516126d660c0860182612579565b5060e08301516126e960e08601826125d2565b5061010083015184820361010086015261270382826125fd565b9150508091505092915050565b6000602082019050818103600083015261272a8184612636565b905092915050565b7f4e487b7100000000000000000000000000000000000000000000000000000000600052602260045260246000fd5b6000600282049050600182168061277957607f821691505b6020821081141561278d5761278c612732565b5b50919050565b7f4552433732313a20617070726f76616c20746f2063757272656e74206f776e6560008201527f7200000000000000000000000000000000000000000000000000000000000000602082015250565b60006127ef602183611ec9565b91506127fa82612793565b604082019050919050565b6000602082019050818103600083015261281e816127e2565b9050919050565b7f4552433732313a20617070726f76652063616c6c6572206973206e6f7420746f60008201527f6b656e206f776e6572206f7220617070726f76656420666f7220616c6c000000602082015250565b6000612881603d83611ec9565b915061288c82612825565b604082019050919050565b600060208201905081810360008301526128b081612874565b9050919050565b7f4e487b7100000000000000000000000000000000000000000000000000000000600052601160045260246000fd5b60006128f182611f79565b91506128fc83611f79565b9250827fffffffffffffffffffffffffffffffffffffffffffffffffffffffffffffffff03821115612931576129306128b7565b5b828201905092915050565b7f4552433732313a2063616c6c6572206973206e6f7420746f6b656e206f776e6560008201527f72206f7220617070726f76656400000000000000000000000000000000000000602082015250565b6000612998602d83611ec9565b91506129a38261293c565b604082019050919050565b600060208201905081810360008301526129c78161298b565b9050919050565b7f4552433732313a20696e76616c696420746f6b656e2049440000000000000000600082015250565b6000612a04601883611ec9565b9150612a0f826129ce565b602082019050919050565b60006020820190508181036000830152612a33816129f7565b9050919050565b7f4552433732313a2061646472657373207a65726f206973206e6f74206120766160008201527f6c6964206f776e65720000000000000000000000000000000000000000000000602082015250565b6000612a96602983611ec9565b9150612aa182612a3a565b604082019050919050565b60006020820190508181036000830152612ac581612a89565b9050919050565b600081905092915050565b6000612ae282611ebe565b612aec8185612acc565b9350612afc818560208601611eda565b80840191505092915050565b6000612b148285612ad7565b9150612b208284612ad7565b91508190509392505050565b7f4552433732313a206d696e7420746f20746865207a65726f2061646472657373600082015250565b6000612b62602083611ec9565b9150612b6d82612b2c565b602082019050919050565b60006020820190508181036000830152612b9181612b55565b9050919050565b7f4552433732313a20746f6b656e20616c7265616479206d696e74656400000000600082015250565b6000612bce601c83611ec9565b9150612bd982612b98565b602082019050919050565b60006020820190508181036000830152612bfd81612bc1565b9050919050565b7f4552433732313a207472616e736665722066726f6d20696e636f72726563742060008201527f6f776e6572000000000000000000000000000000000000000000000000000000602082015250565b6000612c60602583611ec9565b9150612c6b82612c04565b604082019050919050565b60006020820190508181036000830152612c8f81612c53565b9050919050565b7f4552433732313a207472616e7366657220746f20746865207a65726f2061646460008201527f7265737300000000000000000000000000000000000000000000000000000000602082015250565b6000612cf2602483611ec9565b9150612cfd82612c96565b604082019050919050565b60006020820190508181036000830152612d2181612ce5565b9050919050565b7f4552433732313a20617070726f766520746f2063616c6c657200000000000000600082015250565b6000612d5e601983611ec9565b9150612d6982612d28565b602082019050919050565b60006020820190508181036000830152612d8d81612d51565b9050919050565b7f4552433732313a207472616e7366657220746f206e6f6e20455243373231526560008201527f63656976657220696d706c656d656e7465720000000000000000000000000000602082015250565b6000612df0603283611ec9565b9150612dfb82612d94565b604082019050919050565b60006020820190508181036000830152612e1f81612de3565b9050919050565b7f4e487b7100000000000000000000000000000000000000000000000000000000600052601260045260246000fd5b6000612e6082611f79565b9150612e6b83611f79565b925082821015612e7e57612e7d6128b7565b5b828203905092915050565b600082825260208201905092915050565b6000612ea5826125e1565b612eaf8185612e89565b9350612ebf818560208601611eda565b612ec881611f0d565b840191505092915050565b6000608082019050612ee8600083018761200e565b612ef5602083018661200e565b612f026040830185612420565b8181036060830152612f148184612e9a565b905095945050505050565b600081519050612f2e81611e2f565b92915050565b600060208284031215612f4a57612f49611df9565b5b6000612f5884828501612f1f565b9150509291505056fea2646970667358221220192e26d163390fff14d3de0142f32922999425c18d89d392bb615def7ebc3eae64736f6c634300080a0033",
  "immutableReferences": {},
  "source": "// SPDX-License-Identifier: MIT\r\npragma solidity 0.8.10;\r\n\r\nimport \"@openzeppelin/contracts/token/ERC721/ERC721.sol\"; \r\n\r\ncontract LandRegistration is ERC721 {\r\n    \r\n    constructor() ERC721(\"Land\", \"LND\") {}\r\n\r\n    struct LandDetail {\r\n        uint surveyNo;\r\n        string district;\r\n        string taluk;\r\n        string village;\r\n        uint blockNo;\r\n        uint landValue; // in wei\r\n        uint area;\r\n        bool salesStatus;\r\n        bytes documentHash;\r\n    }\r\n    \r\n    mapping(uint => LandDetail) LandDetails;\r\n    \r\n    uint public registeredLandCount = 0;\r\n    \r\n    \r\n    function registerNewLand(uint surveyNo, string memory district, string memory taluk, string memory village, uint blockNo, uint landValue, uint area, bytes memory documentHash) public {\r\n        LandDetails[registeredLandCount] = LandDetail(surveyNo, district, taluk, village, blockNo, landValue, area, false, documentHash);\r\n        _mint(msg.sender, registeredLandCount);\r\n        registeredLandCount += 1;\r\n    }\r\n    \r\n    function getLandDetails(uint landID) view public returns(LandDetail memory) {\r\n        return LandDetails[landID];\r\n    }\r\n}\r\n",
  "sourcePath": "/home/rishal/EthereumLab/Land-Marketplace-Template-main/contracts/Land.sol",
  "compiler": {
    "name": "solc",
    "version": "0.8.10+commit.fc410830.Emscripten.clang"
  },
  "schemaVersion": "3.4.11",
  "updatedAt": "2023-02-19T07:16:11.293Z",
  "devdoc": {
    "kind": "dev",
    "methods": {
      "approve(address,uint256)": {
        "details": "See {IERC721-approve}."
      },
      "balanceOf(address)": {
        "details": "See {IERC721-balanceOf}."
      },
      "getApproved(uint256)": {
        "details": "See {IERC721-getApproved}."
      },
      "isApprovedForAll(address,address)": {
        "details": "See {IERC721-isApprovedForAll}."
      },
      "name()": {
        "details": "See {IERC721Metadata-name}."
      },
      "ownerOf(uint256)": {
        "details": "See {IERC721-ownerOf}."
      },
      "safeTransferFrom(address,address,uint256)": {
        "details": "See {IERC721-safeTransferFrom}."
      },
      "safeTransferFrom(address,address,uint256,bytes)": {
        "details": "See {IERC721-safeTransferFrom}."
      },
      "setApprovalForAll(address,bool)": {
        "details": "See {IERC721-setApprovalForAll}."
      },
      "supportsInterface(bytes4)": {
        "details": "See {IERC165-supportsInterface}."
      },
      "symbol()": {
        "details": "See {IERC721Metadata-symbol}."
      },
      "tokenURI(uint256)": {
        "details": "See {IERC721Metadata-tokenURI}."
      },
      "transferFrom(address,address,uint256)": {
        "details": "See {IERC721-transferFrom}."
      }
    },
    "version": 1
  },
  "userdoc": {
    "kind": "user",
    "methods": {},
    "version": 1
  }
}